:100000000C942A000C9434000C9434000C943400AA
:100010000C9434000C9434000C9434000C94340090
:100020000C9434000C9434000C9434000C94340080
:100030000C9434000C9434000C9434000C94340070
:100040000C9434000C9434000C9434000C94340060
:100050000C94340011241FBECFE5D8E0DEBFCDBF25
:100060000E9436000C9447000C9400008FEF8ABB6E
:100070008BBB42E028EC30E08BB384278BBB88EE4F
:1000800093E0F9013197F1F70197D9F7F5CFF8949B
:02009000FFCFA0
:00000001FF
